S00C00006E6F766F2E7372656356
S11300000C942A000C9434000C9434000C943400A6
S11300100C9434000C9434000C9434000C9434008C
S11300200C9434000C9434000C9434000C9434007C
S11300300C9434000C9434000C9434000C9434006C
S11300400C9434000C9434000C9434000C9434005C
S11300500C94340011241FBECFE5D4E0DEBFCDBF25
S11300600E9436000C945E000C94000081E08ABB70
S11300700E9449000E94580081E08BBB2FEF8FE360
S11300809BE0215080409040E1F700C000001BBA83
S1130090F1CF87B3806B87BB87B38F7B87BB88B374
S11300A0806188BB81E58DB98EB18E7F8EB908954C
S11300B08FEF8FB9779BFECF8FB10895F894FFCF60
S9030000FC
